{
  "_format": "hh-sol-artifact-1",
  "contractName": "LiquidationOperator",
  "sourceName": "contracts/LiquidationOperator.sol",
  "abi": [
    {
      "inputs": [],
      "stateMutability": "nonpayable",
      "type": "constructor"
    },
    {
      "inputs": [],
      "name": "health_factor_decimals",
      "outputs": [
        {
          "internalType": "uint8",
          "name": "",
          "type": "uint8"
        }
      ],
      "stateMutability": "view",
      "type": "function"
    },
    {
      "inputs": [],
      "name": "operate",
      "outputs": [],
      "stateMutability": "nonpayable",
      "type": "function"
    },
    {
      "inputs": [
        {
          "internalType": "address",
          "name": "",
          "type": "address"
        },
        {
          "internalType": "uint256",
          "name": "",
          "type": "uint256"
        },
        {
          "internalType": "uint256",
          "name": "amount1",
          "type": "uint256"
        },
        {
          "internalType": "bytes",
          "name": "",
          "type": "bytes"
        }
      ],
      "name": "uniswapV2Call",
      "outputs": [],
      "stateMutability": "nonpayable",
      "type": "function"
    },
    {
      "stateMutability": "payable",
      "type": "receive"
    }
  ],
  "bytecode": "0x60c060405234801561001057600080fd5b5060405163e6a4390560e01b815273c02aaa39b223fe8d0a0e5c4f27ead9083c756cc2600482015273dac17f958d2ee523a2206206994597c13d831ec76024820152735c69bee701ef814a2b6a3edd4b1652cb9cc5aa6f9063e6a439059060440160206040518083038186803b15801561008957600080fd5b505afa15801561009d573d6000803e3d6000fd5b505050506040513d601f19601f820116820180604052508101906100c1919061019f565b60601b6001600160601b03191660805260405163e6a4390560e01b8152732260fac5e5542a773aa44fbcfedf7c193bc2c599600482015273c02aaa39b223fe8d0a0e5c4f27ead9083c756cc26024820152735c69bee701ef814a2b6a3edd4b1652cb9cc5aa6f9063e6a439059060440160206040518083038186803b15801561014957600080fd5b505afa15801561015d573d6000803e3d6000fd5b505050506040513d601f19601f82011682018060405250810190610181919061019f565b60601b6001600160601b03191660a0526402540be4006000556101cf565b6000602082840312156101b157600080fd5b81516001600160a01b03811681146101c857600080fd5b9392505050565b60805160601c60a05160601c61101461021b6000396000818161018e01528181610442015261052401526000818160b10152818160e3015281816105db01526107f201526110146000f3fe6080604052600436106100385760003560e01c806310d1e85c146100445780637159a61814610066578063ad6788961461007b57600080fd5b3661003f57005b600080fd5b34801561005057600080fd5b5061006461005f366004610c0a565b6100a6565b005b34801561007257600080fd5b5061006461068b565b34801561008757600080fd5b50610090601281565b60405160ff909116815260200160405180910390f35b336001600160a01b037f000000000000000000000000000000000000000000000000000000000000000016146100de576100de610fb2565b6000807f00000000000000000000000000000000000000000000000000000000000000006001600160a01b0316630902f1ac6040518163ffffffff1660e01b815260040160606040518083038186803b15801561013a57600080fd5b505afa15801561014e573d6000803e3d6000fd5b505050506040513d601f19601f820116820180604052508101906101729190610cd5565b506001600160701b031691506001600160701b031691506000807f00000000000000000000000000000000000000000000000000000000000000006001600160a01b0316630902f1ac6040518163ffffffff1660e01b815260040160606040518083038186803b1580156101e557600080fd5b505afa1580156101f9573d6000803e3d6000fd5b505050506040513d601f19601f8201168201806040525081019061021d9190610cd5565b5060405163095ea7b360e01b8152737d2768de32b0b80b7a3454c06bdac94a69ddc7a96004820152602481018a90526001600160701b03928316945091169150879073dac17f958d2ee523a2206206994597c13d831ec79063095ea7b390604401600060405180830381600087803b15801561029857600080fd5b505af11580156102ac573d6000803e3d6000fd5b505060405162a718a960e01b8152732260fac5e5542a773aa44fbcfedf7c193bc2c599600482015273dac17f958d2ee523a2206206994597c13d831ec760248201527359ce4a2ac5bc3f5f225439b2993b86b42f6d3e9f60448201526064810184905260006084820152737d2768de32b0b80b7a3454c06bdac94a69ddc7a9925062a718a9915060a401600060405180830381600087803b15801561035057600080fd5b505af1158015610364573d6000803e3d6000fd5b505050506103a66040518060400160405280601c81526020017f3d3d3d3d3d206c69717569646174696f6e20646f6e65203d3d3d3d3d0000000081525061097a565b6040516370a0823160e01b8152306004820152600090732260fac5e5542a773aa44fbcfedf7c193bc2c599906370a082319060240160206040518083038186803b1580156103f357600080fd5b505afa158015610407573d6000803e3d6000fd5b505050506040513d601f19601f8201168201806040525081019061042b9190610d25565b60405163a9059cbb60e01b81526001600160a01b037f000000000000000000000000000000000000000000000000000000000000000016600482015260248101829052909150732260fac5e5542a773aa44fbcfedf7c193bc2c5999063a9059cbb90604401602060405180830381600087803b1580156104aa57600080fd5b505af11580156104be573d6000803e3d6000fd5b505050506040513d601f19601f820116820180604052508101906104e29190610cac565b5060006104f08286866109c0565b60405163022c0d9f60e01b8152600060048201819052602482018390523060448301526080606483015260848201529091507f00000000000000000000000000000000000000000000000000000000000000006001600160a01b03169063022c0d9f9060a401600060405180830381600087803b15801561057057600080fd5b505af1158015610584573d6000803e3d6000fd5b505050506105b76040518060400160405280600d81526020016c636865636b2062616c616e636560981b81525047610a9f565b60006105c4848989610ae8565b60405163a9059cbb60e01b81526001600160a01b037f00000000000000000000000000000000000000000000000000000000000000001660048201526024810182905290915073c02aaa39b223fe8d0a0e5c4f27ead9083c756cc29063a9059cbb90604401602060405180830381600087803b15801561064357600080fd5b505af1158015610657573d6000803e3d6000fd5b505050506040513d601f19601f8201168201806040525081019061067b9190610cac565b5050505050505050505050505050565b604051632fe4a15f60e21b81527359ce4a2ac5bc3f5f225439b2993b86b42f6d3e9f600482015260009081908190819081908190737d2768de32b0b80b7a3454c06bdac94a69ddc7a99063bf92857c9060240160c06040518083038186803b1580156106f657600080fd5b505afa15801561070a573d6000803e3d6000fd5b505050506040513d601f19601f8201168201806040525081019061072e9190610d3e565b949a509298509096509450925090506107496012600a610ecf565b81106107b45760405162461bcd60e51b815260206004820152602f60248201527f43616e6e6f74206c69717569646174653b206865616c746820666163746f722060448201526e6d7573742062652062656c6f77203160881b60648201526084015b60405180910390fd5b6000805460405163022c0d9f60e01b8152600481019290925260248201523060448201526080606482015260016084820152600960fa1b60a48201527f00000000000000000000000000000000000000000000000000000000000000006001600160a01b03169063022c0d9f9060c401600060405180830381600087803b15801561083e57600080fd5b505af1158015610852573d6000803e3d6000fd5b50506040516370a0823160e01b81523060048201526000925073c02aaa39b223fe8d0a0e5c4f27ead9083c756cc291506370a082319060240160206040518083038186803b1580156108a357600080fd5b505afa1580156108b7573d6000803e3d6000fd5b505050506040513d601f19601f820116820180604052508101906108db9190610d25565b604051632e1a7d4d60e01b81526004810182905290915073c02aaa39b223fe8d0a0e5c4f27ead9083c756cc290632e1a7d4d90602401600060405180830381600087803b15801561092b57600080fd5b505af115801561093f573d6000803e3d6000fd5b50506040513392504780156108fc029250906000818181858888f19350505050158015610970573d6000803e3d6000fd5b5050505050505050565b6109bd8160405160240161098e9190610dd5565b60408051601f198184030181529190526020810180516001600160e01b031663104c13eb60e21b179052610bcd565b50565b6000808411610a255760405162461bcd60e51b815260206004820152602b60248201527f556e697377617056324c6962726172793a20494e53554646494349454e545f4960448201526a1394155517d05353d5539560aa1b60648201526084016107ab565b600083118015610a355750600082115b610a515760405162461bcd60e51b81526004016107ab90610e0a565b6000610a5f856103e5610f7c565b90506000610a6d8483610f7c565b9050600082610a7e876103e8610f7c565b610a889190610e52565b9050610a948183610e6a565b979650505050505050565b610ae48282604051602401610ab5929190610de8565b60408051601f198184030181529190526020810180516001600160e01b03166309710a9d60e41b179052610bcd565b5050565b6000808411610b4e5760405162461bcd60e51b815260206004820152602c60248201527f556e697377617056324c6962726172793a20494e53554646494349454e545f4f60448201526b155514155517d05353d5539560a21b60648201526084016107ab565b600083118015610b5e5750600082115b610b7a5760405162461bcd60e51b81526004016107ab90610e0a565b6000610b868585610f7c565b610b92906103e8610f7c565b90506000610ba08685610f9b565b610bac906103e5610f7c565b9050610bb88183610e6a565b610bc3906001610e52565b9695505050505050565b80516a636f6e736f6c652e6c6f67602083016000808483855afa5050505050565b80516001600160701b0381168114610c0557600080fd5b919050565b600080600080600060808688031215610c2257600080fd5b85356001600160a01b0381168114610c3957600080fd5b94506020860135935060408601359250606086013567ffffffffffffffff80821115610c6457600080fd5b818801915088601f830112610c7857600080fd5b813581811115610c8757600080fd5b896020828501011115610c9957600080fd5b9699959850939650602001949392505050565b600060208284031215610cbe57600080fd5b81518015158114610cce57600080fd5b9392505050565b600080600060608486031215610cea57600080fd5b610cf384610bee565b9250610d0160208501610bee565b9150604084015163ffffffff81168114610d1a57600080fd5b809150509250925092565b600060208284031215610d3757600080fd5b5051919050565b60008060008060008060c08789031215610d5757600080fd5b865195506020870151945060408701519350606087015192506080870151915060a087015190509295509295509295565b6000815180845260005b81811015610dae57602081850181015186830182015201610d92565b81811115610dc0576000602083870101525b50601f01601f19169290920160200192915050565b602081526000610cce6020830184610d88565b604081526000610dfb6040830185610d88565b90508260208301529392505050565b60208082526028908201527f556e697377617056324c6962726172793a20494e53554646494349454e545f4c604082015267495155494449545960c01b606082015260800190565b60008219821115610e6557610e65610fc8565b500190565b600082610e8757634e487b7160e01b600052601260045260246000fd5b500490565b600181815b80851115610ec7578160001904821115610ead57610ead610fc8565b80851615610eba57918102915b93841c9390800290610e91565b509250929050565b6000610cce60ff841683600082610ee857506001610f76565b81610ef557506000610f76565b8160018114610f0b5760028114610f1557610f31565b6001915050610f76565b60ff841115610f2657610f26610fc8565b50506001821b610f76565b5060208310610133831016604e8410600b8410161715610f54575081810a610f76565b610f5e8383610e8c565b8060001904821115610f7257610f72610fc8565b0290505b92915050565b6000816000190483118215151615610f9657610f96610fc8565b500290565b600082821015610fad57610fad610fc8565b500390565b634e487b7160e01b600052600160045260246000fd5b634e487b7160e01b600052601160045260246000fdfea2646970667358221220af7ed6dd89273de6d7cc5e7718a7ae6958d6c0d561305c1658c8dc6a8a94adcb64736f6c63430008070033",
  "linkReferences": {},
  "deployedLinkReferences": {}
}